{
  "contractName": "MultiSigWallet",
  "abi": [
    {
      "inputs": [
        {
          "internalType": "address[]",
          "name": "_owners",
          "type": "address[]"
        },
        {
          "internalType": "uint256",
          "name": "_numConfirmationsRequired",
          "type": "uint256"
        }
      ],
      "stateMutability": "nonpayable",
      "type": "constructor"
    },
    {
      "anonymous": false,
      "inputs": [
        {
          "indexed": true,
          "internalType": "address",
          "name": "owner",
          "type": "address"
        },
        {
          "indexed": true,
          "internalType": "uint256",
          "name": "txId",
          "type": "uint256"
        }
      ],
      "name": "ConfirmTransaction",
      "type": "event"
    },
    {
      "anonymous": false,
      "inputs": [
        {
          "indexed": false,
          "internalType": "address",
          "name": "depositer",
          "type": "address"
        },
        {
          "indexed": false,
          "internalType": "uint256",
          "name": "amount",
          "type": "uint256"
        },
        {
          "indexed": false,
          "internalType": "uint256",
          "name": "balance",
          "type": "uint256"
        }
      ],
      "name": "Deposit",
      "type": "event"
    },
    {
      "anonymous": false,
      "inputs": [
        {
          "indexed": true,
          "internalType": "address",
          "name": "owner",
          "type": "address"
        },
        {
          "indexed": true,
          "internalType": "uint256",
          "name": "value",
          "type": "uint256"
        }
      ],
      "name": "ExecuteTransaction",
      "type": "event"
    },
    {
      "anonymous": false,
      "inputs": [
        {
          "indexed": true,
          "internalType": "address",
          "name": "owner",
          "type": "address"
        },
        {
          "indexed": true,
          "internalType": "uint256",
          "name": "txId",
          "type": "uint256"
        }
      ],
      "name": "RevokeTransaction",
      "type": "event"
    },
    {
      "anonymous": false,
      "inputs": [
        {
          "indexed": true,
          "internalType": "address",
          "name": "owner",
          "type": "address"
        },
        {
          "indexed": true,
          "internalType": "uint256",
          "name": "txId",
          "type": "uint256"
        },
        {
          "indexed": true,
          "internalType": "address",
          "name": "to",
          "type": "address"
        },
        {
          "indexed": false,
          "internalType": "uint256",
          "name": "value",
          "type": "uint256"
        },
        {
          "indexed": false,
          "internalType": "bytes",
          "name": "data",
          "type": "bytes"
        }
      ],
      "name": "SubmitTransaction",
      "type": "event"
    },
    {
      "inputs": [
        {
          "internalType": "uint256",
          "name": "",
          "type": "uint256"
        },
        {
          "internalType": "address",
          "name": "",
          "type": "address"
        }
      ],
      "name": "isConfirmed",
      "outputs": [
        {
          "internalType": "bool",
          "name": "",
          "type": "bool"
        }
      ],
      "stateMutability": "view",
      "type": "function"
    },
    {
      "inputs": [
        {
          "internalType": "address",
          "name": "",
          "type": "address"
        }
      ],
      "name": "isOwner",
      "outputs": [
        {
          "internalType": "bool",
          "name": "",
          "type": "bool"
        }
      ],
      "stateMutability": "view",
      "type": "function"
    },
    {
      "inputs": [],
      "name": "numConfirmationsRequired",
      "outputs": [
        {
          "internalType": "uint256",
          "name": "",
          "type": "uint256"
        }
      ],
      "stateMutability": "view",
      "type": "function"
    },
    {
      "inputs": [
        {
          "internalType": "uint256",
          "name": "",
          "type": "uint256"
        }
      ],
      "name": "owners",
      "outputs": [
        {
          "internalType": "address",
          "name": "",
          "type": "address"
        }
      ],
      "stateMutability": "view",
      "type": "function"
    },
    {
      "inputs": [
        {
          "internalType": "uint256",
          "name": "",
          "type": "uint256"
        }
      ],
      "name": "transactions",
      "outputs": [
        {
          "internalType": "address",
          "name": "to",
          "type": "address"
        },
        {
          "internalType": "uint256",
          "name": "value",
          "type": "uint256"
        },
        {
          "internalType": "bytes",
          "name": "data",
          "type": "bytes"
        },
        {
          "internalType": "bool",
          "name": "executed",
          "type": "bool"
        },
        {
          "internalType": "uint256",
          "name": "numConfirmations",
          "type": "uint256"
        }
      ],
      "stateMutability": "view",
      "type": "function"
    },
    {
      "stateMutability": "payable",
      "type": "receive"
    },
    {
      "inputs": [
        {
          "internalType": "address",
          "name": "_to",
          "type": "address"
        },
        {
          "internalType": "uint256",
          "name": "_value",
          "type": "uint256"
        },
        {
          "internalType": "bytes",
          "name": "_data",
          "type": "bytes"
        }
      ],
      "name": "submitTransaction",
      "outputs": [],
      "stateMutability": "nonpayable",
      "type": "function"
    },
    {
      "inputs": [
        {
          "internalType": "uint256",
          "name": "_txId",
          "type": "uint256"
        }
      ],
      "name": "confirmTransaction",
      "outputs": [],
      "stateMutability": "nonpayable",
      "type": "function"
    },
    {
      "inputs": [
        {
          "internalType": "uint256",
          "name": "_txId",
          "type": "uint256"
        }
      ],
      "name": "executeTransaction",
      "outputs": [],
      "stateMutability": "nonpayable",
      "type": "function"
    },
    {
      "inputs": [
        {
          "internalType": "uint256",
          "name": "_txId",
          "type": "uint256"
        }
      ],
      "name": "revokeTransaction",
      "outputs": [],
      "stateMutability": "nonpayable",
      "type": "function"
    },
    {
      "inputs": [],
      "name": "getOwners",
      "outputs": [
        {
          "internalType": "address[]",
          "name": "",
          "type": "address[]"
        }
      ],
      "stateMutability": "view",
      "type": "function"
    },
    {
      "inputs": [],
      "name": "getTransactionCount",
      "outputs": [
        {
          "internalType": "uint256",
          "name": "",
          "type": "uint256"
        }
      ],
      "stateMutability": "view",
      "type": "function"
    },
    {
      "inputs": [
        {
          "internalType": "uint256",
          "name": "_txId",
          "type": "uint256"
        }
      ],
      "name": "getTransaction",
      "outputs": [
        {
          "internalType": "address",
          "name": "to",
          "type": "address"
        },
        {
          "internalType": "uint256",
          "name": "value",
          "type": "uint256"
        },
        {
          "internalType": "bytes",
          "name": "data",
          "type": "bytes"
        },
        {
          "internalType": "bool",
          "name": "executed",
          "type": "bool"
        },
        {
          "internalType": "uint256",
          "name": "numConfirmations",
          "type": "uint256"
        }
      ],
      "stateMutability": "view",
      "type": "function"
    }
  ],
  "bytecode": "0x60806040523480156200001157600080fd5b5060405162001b0038038062001b00833981810160405260408110156200003757600080fd5b81019080805160405193929190846401000000008211156200005857600080fd5b838201915060208201858111156200006f57600080fd5b82518660208202830111640100000000821117156200008d57600080fd5b8083526020830192505050908051906020019060200280838360005b83811015620000c6578082015181840152602081019050620000a9565b5050505090500160405260200180519060200190929190505050600082511162000158576040517f08c379a000000000000000000000000000000000000000000000000000000000815260040180806020018281038252601c8152602001807f6174206c65617374206f6e65206f776e6572206973206e65656465640000000081525060200191505060405180910390fd5b6000811180156200016a575080825110155b6200017457600080fd5b60005b8251811015620003c85760008382815181106200019057fe5b60200260200101519050600073ffffffffffffffffffffffffffffffffffffffff168173ffffffffffffffffffffffffffffffffffffffff1614156200023e576040517f08c379a00000000000000000000000000000000000000000000000000000000081526004018080602001828103825260188152602001807f6f776e65722063616e277420626520302061646472657373000000000000000081525060200191505060405180910390fd5b600160008273ffffffffffffffffffffffffffffffffffffffff1673ffffffffffffffffffffffffffffffffffffffff16815260200190815260200160002060009054906101000a900460ff1615620002ff576040517f08c379a00000000000000000000000000000000000000000000000000000000081526004018080602001828103825260158152602001807f6164647265737320616c7265616479206f776e6572000000000000000000000081525060200191505060405180910390fd5b60018060008373ffffffffffffffffffffffffffffffffffffffff1673ffffffffffffffffffffffffffffffffffffffff16815260200190815260200160002060006101000a81548160ff0219169083151502179055506000819080600181540180825580915050600190039060005260206000200160009091909190916101000a81548173ffffffffffffffffffffffffffffffffffffffff021916908373ffffffffffffffffffffffffffffffffffffffff16021790555050808060010191505062000177565b5080600281905550505061171e80620003e26000396000f3fe6080604052600436106100ab5760003560e01c80639ace38c2116100645780639ace38c21461039f578063a0e67e2b14610487578063c01a8c84146104f3578063c64274741461052e578063d0549b8514610620578063ee22610b1461064b5761010f565b8063025e7c27146101145780632e7700f0146101795780632f54bf6e146101a457806333ea3dc81461020b578063735631ad146102f357806380f59a651461032e5761010f565b3661010f577f90890809c654f11d6e72a28fa60149770a0d11ec6c92319d6ceb2bb0a4ea1a15333447604051808473ffffffffffffffffffffffffffffffffffffffff168152602001838152602001828152602001935050505060405180910390a1005b600080fd5b34801561012057600080fd5b5061014d6004803603602081101561013757600080fd5b8101908080359060200190929190505050610686565b604051808273ffffffffffffffffffffffffffffffffffffffff16815260200191505060405180910390f35b34801561018557600080fd5b5061018e6106c5565b6040518082815260200191505060405180910390f35b3480156101b057600080fd5b506101f3600480360360208110156101c757600080fd5b81019080803573ffffffffffffffffffffffffffffffffffffffff1690602001909291905050506106d2565b60405180821515815260200191505060405180910390f35b34801561021757600080fd5b506102446004803603602081101561022e57600080fd5b81019080803590602001909291905050506106f2565b604051808673ffffffffffffffffffffffffffffffffffffffff168152602001858152602001806020018415158152602001838152602001828103825285818151815260200191508051906020019080838360005b838110156102b4578082015181840152602081019050610299565b50505050905090810190601f1680156102e15780820380516001836020036101000a031916815260200191505b50965050505050505060405180910390f35b3480156102ff57600080fd5b5061032c6004803603602081101561031657600080fd5b810190808035906020019092919050505061080e565b005b34801561033a57600080fd5b506103876004803603604081101561035157600080fd5b8101908080359060200190929190803573ffffffffffffffffffffffffffffffffffffffff169060200190929190505050610b34565b60405180821515815260200191505060405180910390f35b3480156103ab57600080fd5b506103d8600480360360208110156103c257600080fd5b8101908080359060200190929190505050610b63565b604051808673ffffffffffffffffffffffffffffffffffffffff168152602001858152602001806020018415158152602001838152602001828103825285818151815260200191508051906020019080838360005b8381101561044857808201518184015260208101905061042d565b50505050905090810190601f1680156104755780820380516001836020036101000a031916815260200191505b50965050505050505060405180910390f35b34801561049357600080fd5b5061049c610c6e565b6040518080602001828103825283818151815260200191508051906020019060200280838360005b838110156104df5780820151818401526020810190506104c4565b505050509050019250505060405180910390f35b3480156104ff57600080fd5b5061052c6004803603602081101561051657600080fd5b8101908080359060200190929190505050610cfc565b005b34801561053a57600080fd5b5061061e6004803603606081101561055157600080fd5b81019080803573ffffffffffffffffffffffffffffffffffffffff169060200190929190803590602001909291908035906020019064010000000081111561059857600080fd5b8201836020820111156105aa57600080fd5b803590602001918460018302840111640100000000831117156105cc57600080fd5b91908080601f016020809104026020016040519081016040528093929190818152602001838380828437600081840152601f19601f820116905080830192505050505050509192919290505050611025565b005b34801561062c57600080fd5b50610635611264565b6040518082815260200191505060405180910390f35b34801561065757600080fd5b506106846004803603602081101561066e57600080fd5b810190808035906020019092919050505061126a565b005b6000818154811061069657600080fd5b906000526020600020016000915054906101000a900473ffffffffffffffffffffffffffffffffffffffff1681565b6000600480549050905090565b60016020528060005260406000206000915054906101000a900460ff1681565b600080606060008060006004878154811061070957fe5b906000526020600020906005020190508060000160009054906101000a900473ffffffffffffffffffffffffffffffffffffffff168160010154826002018360030160009054906101000a900460ff168460040154828054600181600116156101000203166002900480601f0160208091040260200160405190810160405280929190818152602001828054600181600116156101000203166002900480156107f35780601f106107c8576101008083540402835291602001916107f3565b820191906000526020600020905b8154815290600101906020018083116107d657829003601f168201915b50505050509250955095509550955095505091939590929450565b600160003373ffffffffffffffffffffffffffffffffffffffff1673ffffffffffffffffffffffffffffffffffffffff16815260200190815260200160002060009054906101000a900460ff1661086457600080fd5b8060048054905081106108df576040517f08c379a00000000000000000000000000000000000000000000000000000000081526004018080602001828103825260198152602001807f7472616e73616374696f6e20646f65736e27742065786973740000000000000081525060200191505060405180910390fd5b81600481815481106108ed57fe5b906000526020600020906005020160030160009054906101000a900460ff161561097f576040517f08c379a00000000000000000000000000000000000000000000000000000000081526004018080602001828103825260138152602001807f747820616c72656164792065786563757465640000000000000000000000000081525060200191505060405180910390fd5b60006004848154811061098e57fe5b906000526020600020906005020190506003600085815260200190815260200160002060003373ffffffffffffffffffffffffffffffffffffffff1673ffffffffffffffffffffffffffffffffffffffff16815260200190815260200160002060009054906101000a900460ff16610a6e576040517f08c379a000000000000000000000000000000000000000000000000000000000815260040180806020018281038252601f8152602001807f6f776e657220686173206e6f7420636f6e6669726d656420746869732074780081525060200191505060405180910390fd5b6001816004016000828254039250508190555060006003600086815260200190815260200160002060003373ffffffffffffffffffffffffffffffffffffffff1673ffffffffffffffffffffffffffffffffffffffff16815260200190815260200160002060006101000a81548160ff021916908315150217905550833373ffffffffffffffffffffffffffffffffffffffff167f1ad870073a851011d852bccd8634c29c7c0ac2265ba96d2bab01285001a465a860405160405180910390a350505050565b60036020528160005260406000206020528060005260406000206000915091509054906101000a900460ff1681565b60048181548110610b7357600080fd5b90600052602060002090600502016000915090508060000160009054906101000a900473ffffffffffffffffffffffffffffffffffffffff1690806001015490806002018054600181600116156101000203166002900480601f016020809104026020016040519081016040528092919081815260200182805460018160011615610100020316600290048015610c4b5780601f10610c2057610100808354040283529160200191610c4b565b820191906000526020600020905b815481529060010190602001808311610c2e57829003601f168201915b5050505050908060030160009054906101000a900460ff16908060040154905085565b60606000805480602002602001604051908101604052809291908181526020018280548015610cf257602002820191906000526020600020905b8160009054906101000a900473ffffffffffffffffffffffffffffffffffffffff1673ffffffffffffffffffffffffffffffffffffffff1681526020019060010190808311610ca8575b5050505050905090565b600160003373ffffffffffffffffffffffffffffffffffffffff1673ffffffffffffffffffffffffffffffffffffffff16815260200190815260200160002060009054906101000a900460ff16610d5257600080fd5b806004805490508110610dcd576040517f08c379a00000000000000000000000000000000000000000000000000000000081526004018080602001828103825260198152602001807f7472616e73616374696f6e20646f65736e27742065786973740000000000000081525060200191505060405180910390fd5b8160048181548110610ddb57fe5b906000526020600020906005020160030160009054906101000a900460ff1615610e6d576040517f08c379a00000000000000000000000000000000000000000000000000000000081526004018080602001828103825260138152602001807f747820616c72656164792065786563757465640000000000000000000000000081525060200191505060405180910390fd5b826003600082815260200190815260200160002060003373ffffffffffffffffffffffffffffffffffffffff1673ffffffffffffffffffffffffffffffffffffffff16815260200190815260200160002060009054906101000a900460ff1615610f3f576040517f08c379a000000000000000000000000000000000000000000000000000000000815260040180806020018281038252601f8152602001807f6f776e657220616c726561647920636f6e6669726d656420746869732074780081525060200191505060405180910390fd5b600060048581548110610f4e57fe5b906000526020600020906005020190506001816004016000828254019250508190555060016003600087815260200190815260200160002060003373ffffffffffffffffffffffffffffffffffffffff1673ffffffffffffffffffffffffffffffffffffffff16815260200190815260200160002060006101000a81548160ff021916908315150217905550843373ffffffffffffffffffffffffffffffffffffffff167f5cbe105e36805f7820e291f799d5794ff948af2a5f664e580382defb6339004160405160405180910390a35050505050565b600160003373ffffffffffffffffffffffffffffffffffffffff1673ffffffffffffffffffffffffffffffffffffffff16815260200190815260200160002060009054906101000a900460ff1661107b57600080fd5b6000600480549050905060046040518060a001604052808673ffffffffffffffffffffffffffffffffffffffff1681526020018581526020018481526020016000151581526020016000815250908060018154018082558091505060019003906000526020600020906005020160009091909190915060008201518160000160006101000a81548173ffffffffffffffffffffffffffffffffffffffff021916908373ffffffffffffffffffffffffffffffffffffffff16021790555060208201518160010155604082015181600201908051906020019061115e92919061163d565b5060608201518160030160006101000a81548160ff0219169083151502179055506080820151816004015550508373ffffffffffffffffffffffffffffffffffffffff16813373ffffffffffffffffffffffffffffffffffffffff167fd5a05bf70715ad82a09a756320284a1b54c9ff74cd0f8cce6219e79b563fe59d86866040518083815260200180602001828103825283818151815260200191508051906020019080838360005b83811015611223578082015181840152602081019050611208565b50505050905090810190601f1680156112505780820380516001836020036101000a031916815260200191505b50935050505060405180910390a450505050565b60025481565b600160003373ffffffffffffffffffffffffffffffffffffffff1673ffffffffffffffffffffffffffffffffffffffff16815260200190815260200160002060009054906101000a900460ff166112c057600080fd5b80600480549050811061133b576040517f08c379a00000000000000000000000000000000000000000000000000000000081526004018080602001828103825260198152602001807f7472616e73616374696f6e20646f65736e27742065786973740000000000000081525060200191505060405180910390fd5b816004818154811061134957fe5b906000526020600020906005020160030160009054906101000a900460ff16156113db576040517f08c379a00000000000000000000000000000000000000000000000000000000081526004018080602001828103825260138152602001807f747820616c72656164792065786563757465640000000000000000000000000081525060200191505060405180910390fd5b6000600484815481106113ea57fe5b9060005260206000209060050201905060025481600401541015611476576040517f08c379a00000000000000000000000000000000000000000000000000000000081526004018080602001828103825260118152602001807f63616e6e6f74206578656375746520747800000000000000000000000000000081525060200191505060405180910390fd5b60018160030160006101000a81548160ff02191690831515021790555060008160000160009054906101000a900473ffffffffffffffffffffffffffffffffffffffff1673ffffffffffffffffffffffffffffffffffffffff1682600101548360020160405180828054600181600116156101000203166002900480156115345780601f10611512576101008083540402835291820191611534565b820191906000526020600020905b815481529060010190602001808311611520575b505091505060006040518083038185875af1925050503d8060008114611576576040519150601f19603f3d011682016040523d82523d6000602084013e61157b565b606091505b50509050806115f2576040517f08c379a00000000000000000000000000000000000000000000000000000000081526004018080602001828103825260098152602001807f7478206661696c6564000000000000000000000000000000000000000000000081525060200191505060405180910390fd5b843373ffffffffffffffffffffffffffffffffffffffff167f5445f318f4f5fcfb66592e68e0cc5822aa15664039bd5f0ffde24c5a8142b1ac60405160405180910390a35050505050565b828054600181600116156101000203166002900490600052602060002090601f01602090048101928261167357600085556116ba565b82601f1061168c57805160ff19168380011785556116ba565b828001600101855582156116ba579182015b828111156116b957825182559160200191906001019061169e565b5b5090506116c791906116cb565b5090565b5b808211156116e45760008160009055506001016116cc565b509056fea2646970667358221220477f3baa8dd5de5a478ebcfd4ee4271a31bfafd82d9775dc2817894319d9223c64736f6c63430007060033",
  "immutableReferences": {},
  "source": "// SPDX-License-Identifier: MIT\r\npragma solidity ^0.7.6;\r\n\r\ncontract MultiSigWallet {\r\n    \r\n    event Deposit(address depositer, uint amount, uint balance);\r\n    event SubmitTransaction(address indexed owner, uint indexed txId, address indexed to, uint value, bytes data);\r\n    event ConfirmTransaction(address indexed owner, uint indexed txId);\r\n    event ExecuteTransaction(address indexed owner, uint indexed value);\r\n    event RevokeTransaction(address indexed owner, uint indexed txId);\r\n    \r\n    address[] public owners;\r\n    mapping (address => bool) public isOwner;\r\n    uint public numConfirmationsRequired;\r\n    \r\n    struct Transaction {\r\n        address to;\r\n        uint value;\r\n        bytes data;\r\n        bool executed;\r\n        uint numConfirmations;\r\n    }\r\n    \r\n    // mapping from tx id => owner => bool\r\n    mapping(uint => mapping(address => bool)) public isConfirmed;\r\n    \r\n    Transaction[] public transactions;\r\n    \r\n    modifier onlyOwner() {\r\n        require(isOwner[msg.sender]);\r\n        _;\r\n    }\r\n    \r\n    modifier txExists(uint _txId) {\r\n        require (_txId < transactions.length, \"transaction doesn't exist\");\r\n        _;\r\n    }\r\n    \r\n    modifier notExecuted(uint _txId) {\r\n        require(!transactions[_txId].executed, \"tx already executed\");\r\n        _;\r\n    }\r\n    \r\n    modifier notConfirmed(uint _txId) {\r\n        require (!isConfirmed[_txId][msg.sender], \"owner already confirmed this tx\");\r\n        _;\r\n    }\r\n    \r\n    constructor (address[] memory _owners, uint _numConfirmationsRequired) {\r\n        \r\n        require(_owners.length > 0, \"at least one owner is needed\");\r\n        require(_numConfirmationsRequired > 0 && _owners.length >= _numConfirmationsRequired);\r\n        \r\n        for (uint i = 0; i < _owners.length; i++) {\r\n            address owner = _owners[i];\r\n            \r\n            require(owner != address(0), \"owner can't be 0 address\");\r\n            require(!isOwner[owner], \"address already owner\");\r\n            \r\n            isOwner[owner] = true;\r\n            owners.push(owner);\r\n        }\r\n        \r\n        numConfirmationsRequired = _numConfirmationsRequired;\r\n    }\r\n    \r\n    function submitTransaction(address _to, uint _value, bytes memory _data) public onlyOwner {\r\n        \r\n        uint txId = transactions.length;\r\n        \r\n        transactions.push(Transaction({\r\n            to: _to,\r\n            value: _value,\r\n            data: _data,\r\n            executed: false,\r\n            numConfirmations: 0\r\n        }));\r\n        \r\n        emit SubmitTransaction(msg.sender, txId, _to, _value, _data);\r\n    }\r\n    \r\n    function confirmTransaction(uint _txId) public onlyOwner txExists(_txId) notExecuted(_txId) notConfirmed(_txId) {\r\n        \r\n        Transaction storage transaction = transactions[_txId];\r\n        transaction.numConfirmations += 1;\r\n        isConfirmed[_txId][msg.sender] = true;\r\n        \r\n        emit ConfirmTransaction(msg.sender, _txId);\r\n    }\r\n    \r\n    function executeTransaction(uint _txId) public onlyOwner txExists(_txId) notExecuted(_txId) {\r\n        \r\n        Transaction storage transaction = transactions[_txId];\r\n        \r\n        require (transaction.numConfirmations >= numConfirmationsRequired, \"cannot execute tx\");\r\n        \r\n        transaction.executed = true;\r\n        \r\n        (bool success, ) = transaction.to.call{value: transaction.value}(transaction.data);\r\n        require(success, \"tx failed\");\r\n        \r\n        emit ExecuteTransaction(msg.sender, _txId);\r\n        \r\n    }\r\n    \r\n    function revokeTransaction(uint _txId) public onlyOwner txExists(_txId) notExecuted(_txId) {\r\n        \r\n        Transaction storage transaction = transactions[_txId];\r\n        \r\n        require(isConfirmed[_txId][msg.sender], \"owner has not confirmed this tx\");\r\n        \r\n        transaction.numConfirmations -= 1;\r\n        isConfirmed[_txId][msg.sender] = false;\r\n        \r\n        emit RevokeTransaction(msg.sender, _txId);\r\n    }\r\n    \r\n    receive() payable external {\r\n        emit Deposit(msg.sender, msg.value, address(this).balance);\r\n    }\r\n    \r\n     function getOwners() public view returns (address[] memory) {\r\n        return owners;\r\n    }\r\n\r\n    function getTransactionCount() public view returns (uint) {\r\n        return transactions.length;\r\n    }\r\n\r\n    function getTransaction(uint _txId)\r\n        public\r\n        view\r\n        returns (address to, uint value, bytes memory data, bool executed, uint numConfirmations)\r\n    {\r\n        Transaction storage transaction = transactions[_txId];\r\n\r\n        return (\r\n            transaction.to,\r\n            transaction.value,\r\n            transaction.data,\r\n            transaction.executed,\r\n            transaction.numConfirmations\r\n        );\r\n    }\r\n    \r\n}",
  "sourcePath": "C:/Users/olivi/Desktop/code/Solidity/learning/multiSig/contracts/MultiSigWallet.sol",
  "compiler": {
    "name": "solc",
    "version": "0.7.6+commit.7338295f.Emscripten.clang"
  },
  "schemaVersion": "3.4.1",
  "updatedAt": "2021-07-17T20:30:38.097Z",
  "devdoc": {
    "kind": "dev",
    "methods": {},
    "version": 1
  },
  "userdoc": {
    "kind": "user",
    "methods": {},
    "version": 1
  }
}