{
  "contractName": "ToDo",
  "abi": [
    {
      "anonymous": false,
      "inputs": [
        {
          "indexed": false,
          "internalType": "address",
          "name": "owner",
          "type": "address"
        },
        {
          "indexed": false,
          "internalType": "string",
          "name": "message",
          "type": "string"
        },
        {
          "indexed": false,
          "internalType": "uint256",
          "name": "id",
          "type": "uint256"
        }
      ],
      "name": "toDoCreated",
      "type": "event"
    },
    {
      "anonymous": false,
      "inputs": [
        {
          "indexed": false,
          "internalType": "address",
          "name": "owner",
          "type": "address"
        },
        {
          "indexed": false,
          "internalType": "string",
          "name": "message",
          "type": "string"
        },
        {
          "indexed": false,
          "internalType": "uint256",
          "name": "id",
          "type": "uint256"
        }
      ],
      "name": "toDoFinished",
      "type": "event"
    },
    {
      "inputs": [
        {
          "internalType": "address",
          "name": "",
          "type": "address"
        }
      ],
      "name": "counter",
      "outputs": [
        {
          "internalType": "uint256",
          "name": "",
          "type": "uint256"
        }
      ],
      "stateMutability": "view",
      "type": "function"
    },
    {
      "inputs": [
        {
          "internalType": "address",
          "name": "",
          "type": "address"
        },
        {
          "internalType": "uint256",
          "name": "",
          "type": "uint256"
        }
      ],
      "name": "ownerToDos",
      "outputs": [
        {
          "internalType": "string",
          "name": "message",
          "type": "string"
        },
        {
          "internalType": "bool",
          "name": "done",
          "type": "bool"
        }
      ],
      "stateMutability": "view",
      "type": "function"
    },
    {
      "inputs": [
        {
          "internalType": "uint256",
          "name": "_id",
          "type": "uint256"
        }
      ],
      "name": "getToDo",
      "outputs": [
        {
          "internalType": "string",
          "name": "message",
          "type": "string"
        },
        {
          "internalType": "bool",
          "name": "done",
          "type": "bool"
        }
      ],
      "stateMutability": "view",
      "type": "function"
    },
    {
      "inputs": [
        {
          "internalType": "string",
          "name": "_message",
          "type": "string"
        }
      ],
      "name": "createToDo",
      "outputs": [],
      "stateMutability": "nonpayable",
      "type": "function"
    },
    {
      "inputs": [
        {
          "internalType": "uint256",
          "name": "_id",
          "type": "uint256"
        }
      ],
      "name": "finishedToDo",
      "outputs": [],
      "stateMutability": "nonpayable",
      "type": "function"
    },
    {
      "inputs": [],
      "name": "getMyToDos",
      "outputs": [
        {
          "internalType": "string",
          "name": "",
          "type": "string"
        }
      ],
      "stateMutability": "view",
      "type": "function"
    }
  ],
  "bytecode": "0x608060405234801561001057600080fd5b50611445806100206000396000f3fe608060405234801561001057600080fd5b50600436106100625760003560e01c80630ca9b7901461006757806360cf802f14610083578063c12327b81461009f578063d1323ed0146100cf578063e06ba14814610100578063fe09d1601461011e575b600080fd5b610081600480360381019061007c9190610d80565b61014f565b005b61009d60048036038101906100989190610d3f565b610413565b005b6100b960048036038101906100b49190610cda565b6105a4565b6040516100c691906110e5565b60405180910390f35b6100e960048036038101906100e49190610d80565b6105bc565b6040516100f7929190611075565b60405180910390f35b6101086107f6565b6040516101159190611053565b60405180910390f35b61013860048036038101906101339190610d03565b610acf565b604051610146929190611075565b60405180910390f35b8080600260003373ffffffffffffffffffffffffffffffffffffffff1673ffffffffffffffffffffffffffffffffffffffff16815260200190815260200160002054116101d1576040517f08c379a00000000000000000000000000000000000000000000000000000000081526004016101c8906110a5565b60405180910390fd5b60001515600160003373ffffffffffffffffffffffffffffffffffffffff1673ffffffffffffffffffffffffffffffffffffffff168152602001908152602001600020838154811061024c577f4e487b7100000000000000000000000000000000000000000000000000000000600052603260045260246000fd5b906000526020600020906002020160010160009054906101000a900460ff161515146102ad576040517f08c379a00000000000000000000000000000000000000000000000000000000081526004016102a4906110c5565b60405180910390fd5b60018060003373ffffffffffffffffffffffffffffffffffffffff1673ffffffffffffffffffffffffffffffffffffffff1681526020019081526020016000208381548110610325577f4e487b7100000000000000000000000000000000000000000000000000000000600052603260045260246000fd5b906000526020600020906002020160010160006101000a81548160ff0219169083151502179055507f755889025457073e49d4111337feff46b00fda6d32a6e616fe05252e77235c7833600160003373ffffffffffffffffffffffffffffffffffffffff1673ffffffffffffffffffffffffffffffffffffffff16815260200190815260200160002084815481106103e6577f4e487b7100000000000000000000000000000000000000000000000000000000600052603260045260246000fd5b90600052602060002090600202016000018460405161040793929190611015565b60405180910390a15050565b600160003373ffffffffffffffffffffffffffffffffffffffff1673ffffffffffffffffffffffffffffffffffffffff168152602001908152602001600020604051806040016040528083815260200160001515815250908060018154018082558091505060019003906000526020600020906002020160009091909190915060008201518160000190805190602001906104af929190610ba5565b5060208201518160010160006101000a81548160ff02191690831515021790555050507f68b977e61fbdde51e9f29b01f79488ae5b54353d1013420193cbb03ade5d0c5e3382600260003373ffffffffffffffffffffffffffffffffffffffff1673ffffffffffffffffffffffffffffffffffffffff1681526020019081526020016000205460405161054493929190610fd7565b60405180910390a1600260003373ffffffffffffffffffffffffffffffffffffffff1673ffffffffffffffffffffffffffffffffffffffff168152602001908152602001600020600081548092919061059c9061127f565b919050555050565b60026020528060005260406000206000915090505481565b606060008280600260003373ffffffffffffffffffffffffffffffffffffffff1673ffffffffffffffffffffffffffffffffffffffff1681526020019081526020016000205411610642576040517f08c379a0000000000000000000000000000000000000000000000000000000008152600401610639906110a5565b60405180910390fd5b600160003373ffffffffffffffffffffffffffffffffffffffff1673ffffffffffffffffffffffffffffffffffffffff16815260200190815260200160002084815481106106b9577f4e487b7100000000000000000000000000000000000000000000000000000000600052603260045260246000fd5b9060005260206000209060020201600001600160003373ffffffffffffffffffffffffffffffffffffffff1673ffffffffffffffffffffffffffffffffffffffff1681526020019081526020016000208581548110610741577f4e487b7100000000000000000000000000000000000000000000000000000000600052603260045260246000fd5b906000526020600020906002020160010160009054906101000a900460ff1681805461076c9061121c565b80601f01602080910402602001604051908101604052809291908181526020018280546107989061121c565b80156107e55780601f106107ba576101008083540402835291602001916107e5565b820191906000526020600020905b8154815290600101906020018083116107c857829003601f168201915b505050505091509250925050915091565b6060600060605b600260003373ffffffffffffffffffffffffffffffffffffffff1673ffffffffffffffffffffffffffffffffffffffff16815260200190815260200160002054821015610ac75760011515600160003373ffffffffffffffffffffffffffffffffffffffff1673ffffffffffffffffffffffffffffffffffffffff16815260200190815260200160002083815481106108bf577f4e487b7100000000000000000000000000000000000000000000000000000000600052603260045260246000fd5b906000526020600020906002020160010160009054906101000a900460ff16151514610ab457600081511415610a0757600160003373ffffffffffffffffffffffffffffffffffffffff1673ffffffffffffffffffffffffffffffffffffffff1681526020019081526020016000208281548110610966577f4e487b7100000000000000000000000000000000000000000000000000000000600052603260045260246000fd5b906000526020600020906002020160000180546109829061121c565b80601f01602080910402602001604051908101604052809291908181526020018280546109ae9061121c565b80156109fb5780601f106109d0576101008083540402835291602001916109fb565b820191906000526020600020905b8154815290600101906020018083116109de57829003601f168201915b50505050509050610ab3565b80600160003373ffffffffffffffffffffffffffffffffffffffff1673ffffffffffffffffffffffffffffffffffffffff1681526020019081526020016000208381548110610a7f577f4e487b7100000000000000000000000000000000000000000000000000000000600052603260045260246000fd5b9060005260206000209060020201600001604051602001610aa1929190610fa8565b60405160208183030381529060405290505b5b8180610abf9061127f565b9250506107fd565b809250505090565b60016020528160005260406000208181548110610aeb57600080fd5b906000526020600020906002020160009150915050806000018054610b0f9061121c565b80601f0160208091040260200160405190810160405280929190818152602001828054610b3b9061121c565b8015610b885780601f10610b5d57610100808354040283529160200191610b88565b820191906000526020600020905b815481529060010190602001808311610b6b57829003601f168201915b5050505050908060010160009054906101000a900460ff16905082565b828054610bb19061121c565b90600052602060002090601f016020900481019282610bd35760008555610c1a565b82601f10610bec57805160ff1916838001178555610c1a565b82800160010185558215610c1a579182015b82811115610c19578251825591602001919060010190610bfe565b5b509050610c279190610c2b565b5090565b5b80821115610c44576000816000905550600101610c2c565b5090565b6000610c5b610c5684611125565b611100565b905082815260208101848484011115610c7357600080fd5b610c7e8482856111da565b509392505050565b600081359050610c95816113e1565b92915050565b600082601f830112610cac57600080fd5b8135610cbc848260208601610c48565b91505092915050565b600081359050610cd4816113f8565b92915050565b600060208284031215610cec57600080fd5b6000610cfa84828501610c86565b91505092915050565b60008060408385031215610d1657600080fd5b6000610d2485828601610c86565b9250506020610d3585828601610cc5565b9150509250929050565b600060208284031215610d5157600080fd5b600082013567ffffffffffffffff811115610d6b57600080fd5b610d7784828501610c9b565b91505092915050565b600060208284031215610d9257600080fd5b6000610da084828501610cc5565b91505092915050565b610db281611192565b82525050565b610dc1816111a4565b82525050565b6000610dd28261116b565b610ddc8185611176565b9350610dec8185602086016111e9565b610df581611355565b840191505092915050565b6000610e0b8261116b565b610e158185611187565b9350610e258185602086016111e9565b80840191505092915050565b60008154610e3e8161121c565b610e488186611176565b94506001821660008114610e635760018114610e7557610ea8565b60ff1983168652602086019350610ea8565b610e7e85611156565b60005b83811015610ea057815481890152600182019150602081019050610e81565b808801955050505b50505092915050565b60008154610ebe8161121c565b610ec88186611187565b94506001821660008114610ee35760018114610ef457610f27565b60ff19831686528186019350610f27565b610efd85611156565b60005b83811015610f1f57815481890152600182019150602081019050610f00565b838801955050505b50505092915050565b6000610f3d601883611176565b9150610f4882611366565b602082019050919050565b6000610f60600283611187565b9150610f6b8261138f565b600282019050919050565b6000610f83601183611176565b9150610f8e826113b8565b602082019050919050565b610fa2816111d0565b82525050565b6000610fb48285610e00565b9150610fbf82610f53565b9150610fcb8284610eb1565b91508190509392505050565b6000606082019050610fec6000830186610da9565b8181036020830152610ffe8185610dc7565b905061100d6040830184610f99565b949350505050565b600060608201905061102a6000830186610da9565b818103602083015261103c8185610e31565b905061104b6040830184610f99565b949350505050565b6000602082019050818103600083015261106d8184610dc7565b905092915050565b6000604082019050818103600083015261108f8185610dc7565b905061109e6020830184610db8565b9392505050565b600060208201905081810360008301526110be81610f30565b9050919050565b600060208201905081810360008301526110de81610f76565b9050919050565b60006020820190506110fa6000830184610f99565b92915050565b600061110a61111b565b9050611116828261124e565b919050565b6000604051905090565b600067ffffffffffffffff8211156111405761113f611326565b5b61114982611355565b9050602081019050919050565b60008190508160005260206000209050919050565b600081519050919050565b600082825260208201905092915050565b600081905092915050565b600061119d826111b0565b9050919050565b60008115159050919050565b600073ffffffffffffffffffffffffffffffffffffffff82169050919050565b6000819050919050565b82818337600083830152505050565b60005b838110156112075780820151818401526020810190506111ec565b83811115611216576000848401525b50505050565b6000600282049050600182168061123457607f821691505b60208210811415611248576112476112f7565b5b50919050565b61125782611355565b810181811067ffffffffffffffff8211171561127657611275611326565b5b80604052505050565b600061128a826111d0565b91507fffffffffffffffffffffffffffffffffffffffffffffffffffffffffffffffff8214156112bd576112bc6112c8565b5b600182019050919050565b7f4e487b7100000000000000000000000000000000000000000000000000000000600052601160045260246000fd5b7f4e487b7100000000000000000000000000000000000000000000000000000000600052602260045260246000fd5b7f4e487b7100000000000000000000000000000000000000000000000000000000600052604160045260246000fd5b6000601f19601f8301169050919050565b7f6e6f20746f446f2077697468206d61746368696e672069640000000000000000600082015250565b7f2c20000000000000000000000000000000000000000000000000000000000000600082015250565b7f746f446f20616c726561647920646f6e65000000000000000000000000000000600082015250565b6113ea81611192565b81146113f557600080fd5b50565b611401816111d0565b811461140c57600080fd5b5056fea264697066735822122032548776325b04646e21ece2e3b1a49d2c1653d452ece7aece5ee495e7ef3b5864736f6c63430008040033",
  "immutableReferences": {},
  "source": "// SPDX-License-Identifier: MIT\r\npragma solidity ^0.8.2;\r\n\r\ncontract ToDo {\r\n    \r\n    struct toDo {\r\n        string message;\r\n        bool done;\r\n    }\r\n    \r\n    mapping(uint => toDo) toDos;\r\n    mapping(address => toDo[]) public ownerToDos;\r\n    mapping(address => uint) public counter;\r\n    \r\n    event toDoCreated(address owner, string message, uint id);\r\n    event toDoFinished(address owner, string message, uint id);\r\n    \r\n    modifier toDoExists(uint _id) {\r\n        require (counter[msg.sender] > _id, 'no toDo with matching id');\r\n        _;\r\n    }\r\n    \r\n    function getToDo(uint _id) public view toDoExists(_id) returns(string memory message, bool done) {\r\n        return (ownerToDos[msg.sender][_id].message, ownerToDos[msg.sender][_id].done);\r\n    }\r\n    \r\n    function createToDo(string memory _message) public {\r\n\r\n        ownerToDos[msg.sender].push(toDo(_message, false));\r\n        \r\n        emit toDoCreated(msg.sender, _message, counter[msg.sender]);\r\n        counter[msg.sender]++;\r\n    }\r\n    \r\n    function finishedToDo(uint _id) public toDoExists(_id) {\r\n        require(ownerToDos[msg.sender][_id].done == false, 'toDo already done');\r\n        \r\n        ownerToDos[msg.sender][_id].done = true;\r\n        emit toDoFinished(msg.sender, ownerToDos[msg.sender][_id].message, _id);\r\n    }\r\n    \r\n    function getMyToDos() public view returns(string memory ) {\r\n        uint i = 0;\r\n        string memory myToDos;\r\n        \r\n        while( i < counter[msg.sender] ) {\r\n            if (ownerToDos[msg.sender][i].done != true) {\r\n                // check if myToDos string is empty to avoid starting the string with a ','\r\n                if (bytes(myToDos).length == 0) {\r\n                    myToDos =  ownerToDos[msg.sender][i].message;\r\n                }\r\n                else {\r\n                    myToDos =  string(abi.encodePacked(myToDos, ', ', ownerToDos[msg.sender][i].message));\r\n                }\r\n            }\r\n            i++;\r\n        }\r\n        \r\n        return (myToDos);\r\n    }\r\n}",
  "sourcePath": "C:/Users/olivi/Desktop/code/Solidity/learning/toDoList/contracts/toDoListV1.sol",
  "compiler": {
    "name": "solc",
    "version": "0.8.4+commit.c7e474f2.Emscripten.clang"
  },
  "schemaVersion": "3.4.1",
  "updatedAt": "2021-07-23T19:03:59.924Z",
  "devdoc": {
    "kind": "dev",
    "methods": {},
    "version": 1
  },
  "userdoc": {
    "kind": "user",
    "methods": {},
    "version": 1
  }
}